{
	"data": {
		"bytecode": {
			"linkReferences": {},
			"object": "608060405260146000556001805460ff19168117905542600255348015602457600080fd5b5060658060326000396000f3fe6080604052348015600f57600080fd5b506004361060285760003560e01c80637eed017214602d575b600080fd5b00fea2646970667358221220375131129acf7519e4e2d2b968516ab37dbb1354d8505b61c5b590b75ab4365764736f6c634300080b0033",
			"opcodes": "PUSH1 0x80 PUSH1 0x40 MSTORE PUSH1 0x14 PUSH1 0x0 SSTORE PUSH1 0x1 DUP1 SLOAD PUSH1 0xFF NOT AND DUP2 OR SWAP1 SSTORE TIMESTAMP PUSH1 0x2 SSTORE CALLVALUE DUP1 ISZERO PUSH1 0x24 JUMPI PUSH1 0x0 DUP1 REVERT JUMPDEST POP PUSH1 0x65 DUP1 PUSH1 0x32 PUSH1 0x0 CODECOPY PUSH1 0x0 RETURN INVALID PUSH1 0x80 PUSH1 0x40 MSTORE CALLVALUE DUP1 ISZERO PUSH1 0xF JUMPI PUSH1 0x0 DUP1 REVERT JUMPDEST POP PUSH1 0x4 CALLDATASIZE LT PUSH1 0x28 JUMPI PUSH1 0x0 CALLDATALOAD PUSH1 0xE0 SHR DUP1 PUSH4 0x7EED0172 EQ PUSH1 0x2D JUMPI JUMPDEST PUSH1 0x0 DUP1 REVERT JUMPDEST STOP INVALID LOG2 PUSH5 0x6970667358 0x22 SLT KECCAK256 CALLDATACOPY MLOAD BALANCE SLT SWAP11 0xCF PUSH22 0x19E4E2D2B968516AB37DBB1354D8505B61C5B590B75A 0xB4 CALLDATASIZE JUMPI PUSH5 0x736F6C6343 STOP ADDMOD SIGNEXTEND STOP CALLER "
		},
		"gasEstimates": {
			"creation": {
				"codeDepositCost": "20200",
				"executionCost": "68510",
				"totalCost": "88710"
			},
			"external": {
				"myFunc()": "98"
			}
		},
		"methodIdentifiers": {
			"myFunc()": "7eed0172"
		}
	},
	"abi": [
		{
			"inputs": [],
			"name": "myFunc",
			"outputs": [],
			"stateMutability": "nonpayable",
			"type": "function"
		}
	]
}