{
	"data": {
		"bytecode": {
			"linkReferences": {},
			"object": "608060405260146000556001805460ff19908116821790915542600281905560646003556004805490921690915560055534801561003c57600080fd5b5060d38061004b6000396000f3fe6080604052348015600f57600080fd5b506004361060505760003560e01c80635c975abb1460555780637eed01721460765780638381f58a146078578063decfd79014608d578063f405c7de146095575b600080fd5b60045460619060ff1681565b60405190151581526020015b60405180910390f35b005b608060005481565b604051908152602001606d565b608060035481565b60806005548156fea26469706673582212201153039c98321d5877046d2d11771d3be38e341bbb3e82e5410b26378e16eb0f64736f6c634300080b0033",
			"opcodes": "PUSH1 0x80 PUSH1 0x40 MSTORE PUSH1 0x14 PUSH1 0x0 SSTORE PUSH1 0x1 DUP1 SLOAD PUSH1 0xFF NOT SWAP1 DUP2 AND DUP3 OR SWAP1 SWAP2 SSTORE TIMESTAMP PUSH1 0x2 DUP2 SWAP1 SSTORE PUSH1 0x64 PUSH1 0x3 SSTORE PUSH1 0x4 DUP1 SLOAD SWAP1 SWAP3 AND SWAP1 SWAP2 SSTORE PUSH1 0x5 SSTORE CALLVALUE DUP1 ISZERO PUSH2 0x3C JUMPI PUSH1 0x0 DUP1 REVERT JUMPDEST POP PUSH1 0xD3 DUP1 PUSH2 0x4B PUSH1 0x0 CODECOPY PUSH1 0x0 RETURN INVALID PUSH1 0x80 PUSH1 0x40 MSTORE CALLVALUE DUP1 ISZERO PUSH1 0xF JUMPI PUSH1 0x0 DUP1 REVERT JUMPDEST POP PUSH1 0x4 CALLDATASIZE LT PUSH1 0x50 JUMPI PUSH1 0x0 CALLDATALOAD PUSH1 0xE0 SHR DUP1 PUSH4 0x5C975ABB EQ PUSH1 0x55 JUMPI DUP1 PUSH4 0x7EED0172 EQ PUSH1 0x76 JUMPI DUP1 PUSH4 0x8381F58A EQ PUSH1 0x78 JUMPI DUP1 PUSH4 0xDECFD790 EQ PUSH1 0x8D JUMPI DUP1 PUSH4 0xF405C7DE EQ PUSH1 0x95 JUMPI JUMPDEST PUSH1 0x0 DUP1 REVERT JUMPDEST PUSH1 0x4 SLOAD PUSH1 0x61 SWAP1 PUSH1 0xFF AND DUP2 JUMP JUMPDEST PUSH1 0x40 MLOAD SWAP1 ISZERO ISZERO DUP2 MSTORE PUSH1 0x20 ADD JUMPDEST PUSH1 0x40 MLOAD DUP1 SWAP2 SUB SWAP1 RETURN JUMPDEST STOP JUMPDEST PUSH1 0x80 PUSH1 0x0 SLOAD DUP2 JUMP JUMPDEST PUSH1 0x40 MLOAD SWAP1 DUP2 MSTORE PUSH1 0x20 ADD PUSH1 0x6D JUMP JUMPDEST PUSH1 0x80 PUSH1 0x3 SLOAD DUP2 JUMP JUMPDEST PUSH1 0x80 PUSH1 0x5 SLOAD DUP2 JUMP INVALID LOG2 PUSH5 0x6970667358 0x22 SLT KECCAK256 GT MSTORE8 SUB SWAP13 SWAP9 ORIGIN SAR PC PUSH24 0x46D2D11771D3BE38E341BBB3E82E5410B26378E16EB0F64 PUSH20 0x6F6C634300080B00330000000000000000000000 "
		},
		"gasEstimates": {
			"creation": {
				"codeDepositCost": "42200",
				"executionCost": "136973",
				"totalCost": "179173"
			},
			"external": {
				"myFunc()": "120",
				"number()": "2317",
				"paused()": "2277",
				"theAwesomeVar()": "2339",
				"theTime()": "2361"
			}
		},
		"methodIdentifiers": {
			"myFunc()": "7eed0172",
			"number()": "8381f58a",
			"paused()": "5c975abb",
			"theAwesomeVar()": "decfd790",
			"theTime()": "f405c7de"
		}
	},
	"abi": [
		{
			"inputs": [],
			"name": "myFunc",
			"outputs": [],
			"stateMutability": "view",
			"type": "function"
		},
		{
			"inputs": [],
			"name": "number",
			"outputs": [
				{
					"internalType": "uint256",
					"name": "",
					"type": "uint256"
				}
			],
			"stateMutability": "view",
			"type": "function"
		},
		{
			"inputs": [],
			"name": "paused",
			"outputs": [
				{
					"internalType": "bool",
					"name": "",
					"type": "bool"
				}
			],
			"stateMutability": "view",
			"type": "function"
		},
		{
			"inputs": [],
			"name": "theAwesomeVar",
			"outputs": [
				{
					"internalType": "uint256",
					"name": "",
					"type": "uint256"
				}
			],
			"stateMutability": "view",
			"type": "function"
		},
		{
			"inputs": [],
			"name": "theTime",
			"outputs": [
				{
					"internalType": "uint256",
					"name": "",
					"type": "uint256"
				}
			],
			"stateMutability": "view",
			"type": "function"
		}
	]
}