{
	"data": {
		"bytecode": {
			"linkReferences": {},
			"object": "60e060405260036080818152600260a052600460c0526100229160019190610035565b5034801561002f57600080fd5b5061009a565b828054828255906000526020600020908101928215610075579160200282015b82811115610075578251829060ff16905591602001919060010190610055565b50610081929150610085565b5090565b5b808211156100815760008155600101610086565b610121806100a96000396000f3fe6080604052348015600f57600080fd5b506004361060325760003560e01c8063d15ec851146037578063ec506931146078575b600080fd5b6076604236600460bd565b6001805480820182556000919091527fb10e2d527612073b26eecdfd717e6a320cf44b4afac2b0732d9fcbe2b7fa0cf60155565b005b6087608336600460bd565b6099565b60405190815260200160405180910390f35b60006001828154811060ab5760ab60d5565b90600052602060002001549050919050565b60006020828403121560ce57600080fd5b5035919050565b634e487b7160e01b600052603260045260246000fdfea2646970667358221220c7370c677278e91cdf86094c472595c0eed6317743dc71a357607d6d56e1e4d564736f6c634300080b0033",
			"opcodes": "PUSH1 0xE0 PUSH1 0x40 MSTORE PUSH1 0x3 PUSH1 0x80 DUP2 DUP2 MSTORE PUSH1 0x2 PUSH1 0xA0 MSTORE PUSH1 0x4 PUSH1 0xC0 MSTORE PUSH2 0x22 SWAP2 PUSH1 0x1 SWAP2 SWAP1 PUSH2 0x35 JUMP JUMPDEST POP CALLVALUE DUP1 ISZERO PUSH2 0x2F JUMPI PUSH1 0x0 DUP1 REVERT JUMPDEST POP PUSH2 0x9A JUMP JUMPDEST DUP3 DUP1 SLOAD DUP3 DUP3 SSTORE SWAP1 PUSH1 0x0 MSTORE PUSH1 0x20 PUSH1 0x0 KECCAK256 SWAP1 DUP2 ADD SWAP3 DUP3 ISZERO PUSH2 0x75 JUMPI SWAP2 PUSH1 0x20 MUL DUP3 ADD JUMPDEST DUP3 DUP2 GT ISZERO PUSH2 0x75 JUMPI DUP3 MLOAD DUP3 SWAP1 PUSH1 0xFF AND SWAP1 SSTORE SWAP2 PUSH1 0x20 ADD SWAP2 SWAP1 PUSH1 0x1 ADD SWAP1 PUSH2 0x55 JUMP JUMPDEST POP PUSH2 0x81 SWAP3 SWAP2 POP PUSH2 0x85 JUMP JUMPDEST POP SWAP1 JUMP JUMPDEST JUMPDEST DUP1 DUP3 GT ISZERO PUSH2 0x81 JUMPI PUSH1 0x0 DUP2 SSTORE PUSH1 0x1 ADD PUSH2 0x86 JUMP JUMPDEST PUSH2 0x121 DUP1 PUSH2 0xA9 PUSH1 0x0 CODECOPY PUSH1 0x0 RETURN INVALID PUSH1 0x80 PUSH1 0x40 MSTORE CALLVALUE DUP1 ISZERO PUSH1 0xF JUMPI PUSH1 0x0 DUP1 REVERT JUMPDEST POP PUSH1 0x4 CALLDATASIZE LT PUSH1 0x32 JUMPI PUSH1 0x0 CALLDATALOAD PUSH1 0xE0 SHR DUP1 PUSH4 0xD15EC851 EQ PUSH1 0x37 JUMPI DUP1 PUSH4 0xEC506931 EQ PUSH1 0x78 JUMPI JUMPDEST PUSH1 0x0 DUP1 REVERT JUMPDEST PUSH1 0x76 PUSH1 0x42 CALLDATASIZE PUSH1 0x4 PUSH1 0xBD JUMP JUMPDEST PUSH1 0x1 DUP1 SLOAD DUP1 DUP3 ADD DUP3 SSTORE PUSH1 0x0 SWAP2 SWAP1 SWAP2 MSTORE PUSH32 0xB10E2D527612073B26EECDFD717E6A320CF44B4AFAC2B0732D9FCBE2B7FA0CF6 ADD SSTORE JUMP JUMPDEST STOP JUMPDEST PUSH1 0x87 PUSH1 0x83 CALLDATASIZE PUSH1 0x4 PUSH1 0xBD JUMP JUMPDEST PUSH1 0x99 JUMP JUMPDEST PUSH1 0x40 MLOAD SWAP1 DUP2 MSTORE PUSH1 0x20 ADD PUSH1 0x40 MLOAD DUP1 SWAP2 SUB SWAP1 RETURN JUMPDEST PUSH1 0x0 PUSH1 0x1 DUP3 DUP2 SLOAD DUP2 LT PUSH1 0xAB JUMPI PUSH1 0xAB PUSH1 0xD5 JUMP JUMPDEST SWAP1 PUSH1 0x0 MSTORE PUSH1 0x20 PUSH1 0x0 KECCAK256 ADD SLOAD SWAP1 POP SWAP2 SWAP1 POP JUMP JUMPDEST PUSH1 0x0 PUSH1 0x20 DUP3 DUP5 SUB SLT ISZERO PUSH1 0xCE JUMPI PUSH1 0x0 DUP1 REVERT JUMPDEST POP CALLDATALOAD SWAP2 SWAP1 POP JUMP JUMPDEST PUSH4 0x4E487B71 PUSH1 0xE0 SHL PUSH1 0x0 MSTORE PUSH1 0x32 PUSH1 0x4 MSTORE PUSH1 0x24 PUSH1 0x0 REVERT INVALID LOG2 PUSH5 0x6970667358 0x22 SLT KECCAK256 0xC7 CALLDATACOPY 0xC PUSH8 0x7278E91CDF86094C SELFBALANCE 0x25 SWAP6 0xC0 0xEE 0xD6 BALANCE PUSH24 0x43DC71A357607D6D56E1E4D564736F6C634300080B003300 "
		},
		"gasEstimates": {
			"creation": {
				"codeDepositCost": "57800",
				"executionCost": "infinite",
				"totalCost": "infinite"
			},
			"external": {
				"addToArray(uint256)": "46526",
				"getValeOfIndex(uint256)": "4565"
			}
		},
		"methodIdentifiers": {
			"addToArray(uint256)": "d15ec851",
			"getValeOfIndex(uint256)": "ec506931"
		}
	},
	"abi": [
		{
			"inputs": [
				{
					"internalType": "uint256",
					"name": "_value",
					"type": "uint256"
				}
			],
			"name": "addToArray",
			"outputs": [],
			"stateMutability": "nonpayable",
			"type": "function"
		},
		{
			"inputs": [
				{
					"internalType": "uint256",
					"name": "_index",
					"type": "uint256"
				}
			],
			"name": "getValeOfIndex",
			"outputs": [
				{
					"internalType": "uint256",
					"name": "",
					"type": "uint256"
				}
			],
			"stateMutability": "view",
			"type": "function"
		}
	]
}