{
	"data": {
		"bytecode": {
			"linkReferences": {},
			"object": "608060405234801561001057600080fd5b5061018a806100206000396000f3fe608060405234801561001057600080fd5b50600436106100365760003560e01c80637bbedc3b1461003b5780639e5ddd8b14610060575b600080fd5b61004e61004936600461010c565b610073565b60405190815260200160405180910390f35b61004e61006e36600461010c565b6100c6565b600082600a14156100b55760405162461bcd60e51b81526020600482015260076024820152660582069732031360cc1b60448201526064015b60405180910390fd5b6100bf828461012e565b9392505050565b60008183106100b55760405162461bcd60e51b81526020600482015260126024820152715820697320626967676572207468616e205960701b60448201526064016100ac565b6000806040838503121561011f57600080fd5b50508035926020909101359150565b6000821982111561014f57634e487b7160e01b600052601160045260246000fd5b50019056fea2646970667358221220a876a999b324ecc0ad760a649e3985488b73dd97c854edb303718a984de6c98764736f6c634300080b0033",
			"opcodes": "PUSH1 0x80 PUSH1 0x40 MSTORE CALLVALUE DUP1 ISZERO PUSH2 0x10 JUMPI PUSH1 0x0 DUP1 REVERT JUMPDEST POP PUSH2 0x18A DUP1 PUSH2 0x20 PUSH1 0x0 CODECOPY PUSH1 0x0 RETURN INVALID PUSH1 0x80 PUSH1 0x40 MSTORE CALLVALUE DUP1 ISZERO PUSH2 0x10 JUMPI PUSH1 0x0 DUP1 REVERT JUMPDEST POP PUSH1 0x4 CALLDATASIZE LT PUSH2 0x36 JUMPI PUSH1 0x0 CALLDATALOAD PUSH1 0xE0 SHR DUP1 PUSH4 0x7BBEDC3B EQ PUSH2 0x3B JUMPI DUP1 PUSH4 0x9E5DDD8B EQ PUSH2 0x60 JUMPI JUMPDEST PUSH1 0x0 DUP1 REVERT JUMPDEST PUSH2 0x4E PUSH2 0x49 CALLDATASIZE PUSH1 0x4 PUSH2 0x10C JUMP JUMPDEST PUSH2 0x73 JUMP JUMPDEST PUSH1 0x40 MLOAD SWAP1 DUP2 MSTORE PUSH1 0x20 ADD PUSH1 0x40 MLOAD DUP1 SWAP2 SUB SWAP1 RETURN JUMPDEST PUSH2 0x4E PUSH2 0x6E CALLDATASIZE PUSH1 0x4 PUSH2 0x10C JUMP JUMPDEST PUSH2 0xC6 JUMP JUMPDEST PUSH1 0x0 DUP3 PUSH1 0xA EQ ISZERO PUSH2 0xB5 JUMPI PUSH1 0x40 MLOAD PUSH3 0x461BCD PUSH1 0xE5 SHL DUP2 MSTORE PUSH1 0x20 PUSH1 0x4 DUP3 ADD MSTORE PUSH1 0x7 PUSH1 0x24 DUP3 ADD MSTORE PUSH7 0x5820697320313 PUSH1 0xCC SHL PUSH1 0x44 DUP3 ADD MSTORE PUSH1 0x64 ADD JUMPDEST PUSH1 0x40 MLOAD DUP1 SWAP2 SUB SWAP1 REVERT JUMPDEST PUSH2 0xBF DUP3 DUP5 PUSH2 0x12E JUMP JUMPDEST SWAP4 SWAP3 POP POP POP JUMP JUMPDEST PUSH1 0x0 DUP2 DUP4 LT PUSH2 0xB5 JUMPI PUSH1 0x40 MLOAD PUSH3 0x461BCD PUSH1 0xE5 SHL DUP2 MSTORE PUSH1 0x20 PUSH1 0x4 DUP3 ADD MSTORE PUSH1 0x12 PUSH1 0x24 DUP3 ADD MSTORE PUSH18 0x5820697320626967676572207468616E2059 PUSH1 0x70 SHL PUSH1 0x44 DUP3 ADD MSTORE PUSH1 0x64 ADD PUSH2 0xAC JUMP JUMPDEST PUSH1 0x0 DUP1 PUSH1 0x40 DUP4 DUP6 SUB SLT ISZERO PUSH2 0x11F JUMPI PUSH1 0x0 DUP1 REVERT JUMPDEST POP POP DUP1 CALLDATALOAD SWAP3 PUSH1 0x20 SWAP1 SWAP2 ADD CALLDATALOAD SWAP2 POP JUMP JUMPDEST PUSH1 0x0 DUP3 NOT DUP3 GT ISZERO PUSH2 0x14F JUMPI PUSH4 0x4E487B71 PUSH1 0xE0 SHL PUSH1 0x0 MSTORE PUSH1 0x11 PUSH1 0x4 MSTORE PUSH1 0x24 PUSH1 0x0 REVERT JUMPDEST POP ADD SWAP1 JUMP INVALID LOG2 PUSH5 0x6970667358 0x22 SLT KECCAK256 0xA8 PUSH23 0xA999B324ECC0AD760A649E3985488B73DD97C854EDB303 PUSH18 0x8A984DE6C98764736F6C634300080B003300 "
		},
		"gasEstimates": {
			"creation": {
				"codeDepositCost": "78800",
				"executionCost": "129",
				"totalCost": "78929"
			},
			"external": {
				"myPureFunc(uint256,uint256)": "397",
				"myPureRevertFunc(uint256,uint256)": "378"
			}
		},
		"methodIdentifiers": {
			"myPureFunc(uint256,uint256)": "9e5ddd8b",
			"myPureRevertFunc(uint256,uint256)": "7bbedc3b"
		}
	},
	"abi": [
		{
			"inputs": [
				{
					"internalType": "uint256",
					"name": "_x",
					"type": "uint256"
				},
				{
					"internalType": "uint256",
					"name": "_y",
					"type": "uint256"
				}
			],
			"name": "myPureFunc",
			"outputs": [
				{
					"internalType": "uint256",
					"name": "xy",
					"type": "uint256"
				}
			],
			"stateMutability": "pure",
			"type": "function"
		},
		{
			"inputs": [
				{
					"internalType": "uint256",
					"name": "_x",
					"type": "uint256"
				},
				{
					"internalType": "uint256",
					"name": "_y",
					"type": "uint256"
				}
			],
			"name": "myPureRevertFunc",
			"outputs": [
				{
					"internalType": "uint256",
					"name": "xy",
					"type": "uint256"
				}
			],
			"stateMutability": "pure",
			"type": "function"
		}
	]
}