{
	"data": {
		"bytecode": {
			"linkReferences": {},
			"object": "600080556001805460ff1916905560c0604052601060808190526f1b9bdd081e595d081c995d99585b195960821b60a090815261003f9160029190610052565b5034801561004c57600080fd5b50610126565b82805461005e906100eb565b90600052602060002090601f01602090048101928261008057600085556100c6565b82601f1061009957805160ff19168380011785556100c6565b828001600101855582156100c6579182015b828111156100c65782518255916020019190600101906100ab565b506100d29291506100d6565b5090565b5b808211156100d257600081556001016100d7565b600181811c908216806100ff57607f821691505b6020821081141561012057634e487b7160e01b600052602260045260246000fd5b50919050565b6103c5806101356000396000f3fe608060405234801561001057600080fd5b50600436106100625760003560e01c80630ca2748114610067578063131f5d0514610071578063200d2ed21461008d57806354214f69146100a2578063c432d5c1146100aa578063f4d0c9ac146100c7575b600080fd5b61006f6100cf565b005b61007a60005481565b6040519081526020015b60405180910390f35b6100956100e5565b60405161008491906102b7565b61006f610173565b6001546100b79060ff1681565b6040519015158152602001610084565b61006f61020f565b6000805490806100de83610322565b9190505550565b600280546100f290610339565b80601f016020809104026020016040519081016040528092919081815260200182805461011e90610339565b801561016b5780601f106101405761010080835404028352916020019161016b565b820191906000526020600020905b81548152906001019060200180831161014e57829003601f168201915b505050505081565b6005600054106101c2576001805460ff19168117905560408051808201909152600f8082526e125cc81b9bddc814995d99585b1959608a1b60209092019182526101bf9160029161021e565b50565b6005600054101561020d576001805460ff1916905560408051808201909152600f8082526e125cc81393d50814995d99585b1959608a1b60209092019182526101bf9160029161021e565b565b6000805490806100de83610374565b82805461022a90610339565b90600052602060002090601f01602090048101928261024c5760008555610292565b82601f1061026557805160ff1916838001178555610292565b82800160010185558215610292579182015b82811115610292578251825591602001919060010190610277565b5061029e9291506102a2565b5090565b5b8082111561029e57600081556001016102a3565b600060208083528351808285015260005b818110156102e4578581018301518582016040015282016102c8565b818111156102f6576000604083870101525b50601f01601f1916929092016040019392505050565b634e487b7160e01b600052601160045260246000fd5b6000816103315761033161030c565b506000190190565b600181811c9082168061034d57607f821691505b6020821081141561036e57634e487b7160e01b600052602260045260246000fd5b50919050565b60006000198214156103885761038861030c565b506001019056fea26469706673582212201eb76c1398b7d6fb9792375fabc155ed091dddb56f2ae09c2347227f9d7385ba64736f6c634300080b0033",
			"opcodes": "PUSH1 0x0 DUP1 SSTORE PUSH1 0x1 DUP1 SLOAD PUSH1 0xFF NOT AND SWAP1 SSTORE PUSH1 0xC0 PUSH1 0x40 MSTORE PUSH1 0x10 PUSH1 0x80 DUP2 SWAP1 MSTORE PUSH16 0x1B9BDD081E595D081C995D99585B1959 PUSH1 0x82 SHL PUSH1 0xA0 SWAP1 DUP2 MSTORE PUSH2 0x3F SWAP2 PUSH1 0x2 SWAP2 SWAP1 PUSH2 0x52 JUMP JUMPDEST POP CALLVALUE DUP1 ISZERO PUSH2 0x4C JUMPI PUSH1 0x0 DUP1 REVERT JUMPDEST POP PUSH2 0x126 JUMP JUMPDEST DUP3 DUP1 SLOAD PUSH2 0x5E SWAP1 PUSH2 0xEB JUMP JUMPDEST SWAP1 PUSH1 0x0 MSTORE PUSH1 0x20 PUSH1 0x0 KECCAK256 SWAP1 PUSH1 0x1F ADD PUSH1 0x20 SWAP1 DIV DUP2 ADD SWAP3 DUP3 PUSH2 0x80 JUMPI PUSH1 0x0 DUP6 SSTORE PUSH2 0xC6 JUMP JUMPDEST DUP3 PUSH1 0x1F LT PUSH2 0x99 JUMPI DUP1 MLOAD PUSH1 0xFF NOT AND DUP4 DUP1 ADD OR DUP6 SSTORE PUSH2 0xC6 JUMP JUMPDEST DUP3 DUP1 ADD PUSH1 0x1 ADD DUP6 SSTORE DUP3 ISZERO PUSH2 0xC6 JUMPI SWAP2 DUP3 ADD JUMPDEST DUP3 DUP2 GT ISZERO PUSH2 0xC6 JUMPI DUP3 MLOAD DUP3 SSTORE SWAP2 PUSH1 0x20 ADD SWAP2 SWAP1 PUSH1 0x1 ADD SWAP1 PUSH2 0xAB JUMP JUMPDEST POP PUSH2 0xD2 SWAP3 SWAP2 POP PUSH2 0xD6 JUMP JUMPDEST POP SWAP1 JUMP JUMPDEST JUMPDEST DUP1 DUP3 GT ISZERO PUSH2 0xD2 JUMPI PUSH1 0x0 DUP2 SSTORE PUSH1 0x1 ADD PUSH2 0xD7 JUMP JUMPDEST PUSH1 0x1 DUP2 DUP2 SHR SWAP1 DUP3 AND DUP1 PUSH2 0xFF JUMPI PUSH1 0x7F DUP3 AND SWAP2 POP JUMPDEST PUSH1 0x20 DUP3 LT DUP2 EQ ISZERO PUSH2 0x120 JUMPI PUSH4 0x4E487B71 PUSH1 0xE0 SHL PUSH1 0x0 MSTORE PUSH1 0x22 PUSH1 0x4 MSTORE PUSH1 0x24 PUSH1 0x0 REVERT JUMPDEST POP SWAP2 SWAP1 POP JUMP JUMPDEST PUSH2 0x3C5 DUP1 PUSH2 0x135 PUSH1 0x0 CODECOPY PUSH1 0x0 RETURN INVALID PUSH1 0x80 PUSH1 0x40 MSTORE CALLVALUE DUP1 ISZERO PUSH2 0x10 JUMPI PUSH1 0x0 DUP1 REVERT JUMPDEST POP PUSH1 0x4 CALLDATASIZE LT PUSH2 0x62 JUMPI PUSH1 0x0 CALLDATALOAD PUSH1 0xE0 SHR DUP1 PUSH4 0xCA27481 EQ PUSH2 0x67 JUMPI DUP1 PUSH4 0x131F5D05 EQ PUSH2 0x71 JUMPI DUP1 PUSH4 0x200D2ED2 EQ PUSH2 0x8D JUMPI DUP1 PUSH4 0x54214F69 EQ PUSH2 0xA2 JUMPI DUP1 PUSH4 0xC432D5C1 EQ PUSH2 0xAA JUMPI DUP1 PUSH4 0xF4D0C9AC EQ PUSH2 0xC7 JUMPI JUMPDEST PUSH1 0x0 DUP1 REVERT JUMPDEST PUSH2 0x6F PUSH2 0xCF JUMP JUMPDEST STOP JUMPDEST PUSH2 0x7A PUSH1 0x0 SLOAD DUP2 JUMP JUMPDEST PUSH1 0x40 MLOAD SWAP1 DUP2 MSTORE PUSH1 0x20 ADD JUMPDEST PUSH1 0x40 MLOAD DUP1 SWAP2 SUB SWAP1 RETURN JUMPDEST PUSH2 0x95 PUSH2 0xE5 JUMP JUMPDEST PUSH1 0x40 MLOAD PUSH2 0x84 SWAP2 SWAP1 PUSH2 0x2B7 JUMP JUMPDEST PUSH2 0x6F PUSH2 0x173 JUMP JUMPDEST PUSH1 0x1 SLOAD PUSH2 0xB7 SWAP1 PUSH1 0xFF AND DUP2 JUMP JUMPDEST PUSH1 0x40 MLOAD SWAP1 ISZERO ISZERO DUP2 MSTORE PUSH1 0x20 ADD PUSH2 0x84 JUMP JUMPDEST PUSH2 0x6F PUSH2 0x20F JUMP JUMPDEST PUSH1 0x0 DUP1 SLOAD SWAP1 DUP1 PUSH2 0xDE DUP4 PUSH2 0x322 JUMP JUMPDEST SWAP2 SWAP1 POP SSTORE POP JUMP JUMPDEST PUSH1 0x2 DUP1 SLOAD PUSH2 0xF2 SWAP1 PUSH2 0x339 JUMP JUMPDEST DUP1 PUSH1 0x1F ADD PUSH1 0x20 DUP1 SWAP2 DIV MUL PUSH1 0x20 ADD PUSH1 0x40 MLOAD SWAP1 DUP2 ADD PUSH1 0x40 MSTORE DUP1 SWAP3 SWAP2 SWAP1 DUP2 DUP2 MSTORE PUSH1 0x20 ADD DUP3 DUP1 SLOAD PUSH2 0x11E SWAP1 PUSH2 0x339 JUMP JUMPDEST DUP1 ISZERO PUSH2 0x16B JUMPI DUP1 PUSH1 0x1F LT PUSH2 0x140 JUMPI PUSH2 0x100 DUP1 DUP4 SLOAD DIV MUL DUP4 MSTORE SWAP2 PUSH1 0x20 ADD SWAP2 PUSH2 0x16B JUMP JUMPDEST DUP3 ADD SWAP2 SWAP1 PUSH1 0x0 MSTORE PUSH1 0x20 PUSH1 0x0 KECCAK256 SWAP1 JUMPDEST DUP2 SLOAD DUP2 MSTORE SWAP1 PUSH1 0x1 ADD SWAP1 PUSH1 0x20 ADD DUP1 DUP4 GT PUSH2 0x14E JUMPI DUP3 SWAP1 SUB PUSH1 0x1F AND DUP3 ADD SWAP2 JUMPDEST POP POP POP POP POP DUP2 JUMP JUMPDEST PUSH1 0x5 PUSH1 0x0 SLOAD LT PUSH2 0x1C2 JUMPI PUSH1 0x1 DUP1 SLOAD PUSH1 0xFF NOT AND DUP2 OR SWAP1 SSTORE PUSH1 0x40 DUP1 MLOAD DUP1 DUP3 ADD SWAP1 SWAP2 MSTORE PUSH1 0xF DUP1 DUP3 MSTORE PUSH15 0x125CC81B9BDDC814995D99585B1959 PUSH1 0x8A SHL PUSH1 0x20 SWAP1 SWAP3 ADD SWAP2 DUP3 MSTORE PUSH2 0x1BF SWAP2 PUSH1 0x2 SWAP2 PUSH2 0x21E JUMP JUMPDEST POP JUMP JUMPDEST PUSH1 0x5 PUSH1 0x0 SLOAD LT ISZERO PUSH2 0x20D JUMPI PUSH1 0x1 DUP1 SLOAD PUSH1 0xFF NOT AND SWAP1 SSTORE PUSH1 0x40 DUP1 MLOAD DUP1 DUP3 ADD SWAP1 SWAP2 MSTORE PUSH1 0xF DUP1 DUP3 MSTORE PUSH15 0x125CC81393D50814995D99585B1959 PUSH1 0x8A SHL PUSH1 0x20 SWAP1 SWAP3 ADD SWAP2 DUP3 MSTORE PUSH2 0x1BF SWAP2 PUSH1 0x2 SWAP2 PUSH2 0x21E JUMP JUMPDEST JUMP JUMPDEST PUSH1 0x0 DUP1 SLOAD SWAP1 DUP1 PUSH2 0xDE DUP4 PUSH2 0x374 JUMP JUMPDEST DUP3 DUP1 SLOAD PUSH2 0x22A SWAP1 PUSH2 0x339 JUMP JUMPDEST SWAP1 PUSH1 0x0 MSTORE PUSH1 0x20 PUSH1 0x0 KECCAK256 SWAP1 PUSH1 0x1F ADD PUSH1 0x20 SWAP1 DIV DUP2 ADD SWAP3 DUP3 PUSH2 0x24C JUMPI PUSH1 0x0 DUP6 SSTORE PUSH2 0x292 JUMP JUMPDEST DUP3 PUSH1 0x1F LT PUSH2 0x265 JUMPI DUP1 MLOAD PUSH1 0xFF NOT AND DUP4 DUP1 ADD OR DUP6 SSTORE PUSH2 0x292 JUMP JUMPDEST DUP3 DUP1 ADD PUSH1 0x1 ADD DUP6 SSTORE DUP3 ISZERO PUSH2 0x292 JUMPI SWAP2 DUP3 ADD JUMPDEST DUP3 DUP2 GT ISZERO PUSH2 0x292 JUMPI DUP3 MLOAD DUP3 SSTORE SWAP2 PUSH1 0x20 ADD SWAP2 SWAP1 PUSH1 0x1 ADD SWAP1 PUSH2 0x277 JUMP JUMPDEST POP PUSH2 0x29E SWAP3 SWAP2 POP PUSH2 0x2A2 JUMP JUMPDEST POP SWAP1 JUMP JUMPDEST JUMPDEST DUP1 DUP3 GT ISZERO PUSH2 0x29E JUMPI PUSH1 0x0 DUP2 SSTORE PUSH1 0x1 ADD PUSH2 0x2A3 JUMP JUMPDEST PUSH1 0x0 PUSH1 0x20 DUP1 DUP4 MSTORE DUP4 MLOAD DUP1 DUP3 DUP6 ADD MSTORE PUSH1 0x0 JUMPDEST DUP2 DUP2 LT ISZERO PUSH2 0x2E4 JUMPI DUP6 DUP2 ADD DUP4 ADD MLOAD DUP6 DUP3 ADD PUSH1 0x40 ADD MSTORE DUP3 ADD PUSH2 0x2C8 JUMP JUMPDEST DUP2 DUP2 GT ISZERO PUSH2 0x2F6 JUMPI PUSH1 0x0 PUSH1 0x40 DUP4 DUP8 ADD ADD MSTORE JUMPDEST POP PUSH1 0x1F ADD PUSH1 0x1F NOT AND SWAP3 SWAP1 SWAP3 ADD PUSH1 0x40 ADD SWAP4 SWAP3 POP POP POP JUMP JUMPDEST PUSH4 0x4E487B71 PUSH1 0xE0 SHL PUSH1 0x0 MSTORE PUSH1 0x11 PUSH1 0x4 MSTORE PUSH1 0x24 PUSH1 0x0 REVERT JUMPDEST PUSH1 0x0 DUP2 PUSH2 0x331 JUMPI PUSH2 0x331 PUSH2 0x30C JUMP JUMPDEST POP PUSH1 0x0 NOT ADD SWAP1 JUMP JUMPDEST PUSH1 0x1 DUP2 DUP2 SHR SWAP1 DUP3 AND DUP1 PUSH2 0x34D JUMPI PUSH1 0x7F DUP3 AND SWAP2 POP JUMPDEST PUSH1 0x20 DUP3 LT DUP2 EQ ISZERO PUSH2 0x36E JUMPI PUSH4 0x4E487B71 PUSH1 0xE0 SHL PUSH1 0x0 MSTORE PUSH1 0x22 PUSH1 0x4 MSTORE PUSH1 0x24 PUSH1 0x0 REVERT JUMPDEST POP SWAP2 SWAP1 POP JUMP JUMPDEST PUSH1 0x0 PUSH1 0x0 NOT DUP3 EQ ISZERO PUSH2 0x388 JUMPI PUSH2 0x388 PUSH2 0x30C JUMP JUMPDEST POP PUSH1 0x1 ADD SWAP1 JUMP INVALID LOG2 PUSH5 0x6970667358 0x22 SLT KECCAK256 0x1E 0xB7 PUSH13 0x1398B7D6FB9792375FABC155ED MULMOD SAR 0xDD 0xB5 PUSH16 0x2AE09C2347227F9D7385BA64736F6C63 NUMBER STOP ADDMOD SIGNEXTEND STOP CALLER "
		},
		"gasEstimates": {
			"creation": {
				"codeDepositCost": "193000",
				"executionCost": "infinite",
				"totalCost": "infinite"
			},
			"external": {
				"addToRecealState()": "24524",
				"isNowRevealed()": "2376",
				"isRevealed()": "infinite",
				"removeToRecealState()": "24405",
				"revealState()": "2284",
				"status()": "infinite"
			}
		},
		"methodIdentifiers": {
			"addToRecealState()": "f4d0c9ac",
			"isNowRevealed()": "c432d5c1",
			"isRevealed()": "54214f69",
			"removeToRecealState()": "0ca27481",
			"revealState()": "131f5d05",
			"status()": "200d2ed2"
		}
	},
	"abi": [
		{
			"inputs": [],
			"name": "addToRecealState",
			"outputs": [],
			"stateMutability": "nonpayable",
			"type": "function"
		},
		{
			"inputs": [],
			"name": "isNowRevealed",
			"outputs": [
				{
					"internalType": "bool",
					"name": "",
					"type": "bool"
				}
			],
			"stateMutability": "view",
			"type": "function"
		},
		{
			"inputs": [],
			"name": "isRevealed",
			"outputs": [],
			"stateMutability": "nonpayable",
			"type": "function"
		},
		{
			"inputs": [],
			"name": "removeToRecealState",
			"outputs": [],
			"stateMutability": "nonpayable",
			"type": "function"
		},
		{
			"inputs": [],
			"name": "revealState",
			"outputs": [
				{
					"internalType": "uint256",
					"name": "",
					"type": "uint256"
				}
			],
			"stateMutability": "view",
			"type": "function"
		},
		{
			"inputs": [],
			"name": "status",
			"outputs": [
				{
					"internalType": "string",
					"name": "",
					"type": "string"
				}
			],
			"stateMutability": "view",
			"type": "function"
		}
	]
}