{
	"data": {
		"bytecode": {
			"linkReferences": {},
			"object": "608060405234801561001057600080fd5b5060d78061001f6000396000f3fe6080604052348015600f57600080fd5b506004361060285760003560e01c80630dd3179414602d575b600080fd5b60336035565b005b60005b6005811015605b578060031415604c57605b565b806054816079565b9150506038565b5060005b600a81101560765780606f816079565b915050605f565b50565b6000600019821415609a57634e487b7160e01b600052601160045260246000fd5b506001019056fea26469706673582212206f5cf58f8f2e1cfa095d3c45e696122ef8159381215e3cf49a8100801fa5c35964736f6c634300080b0033",
			"opcodes": "PUSH1 0x80 PUSH1 0x40 MSTORE CALLVALUE DUP1 ISZERO PUSH2 0x10 JUMPI PUSH1 0x0 DUP1 REVERT JUMPDEST POP PUSH1 0xD7 DUP1 PUSH2 0x1F PUSH1 0x0 CODECOPY PUSH1 0x0 RETURN INVALID PUSH1 0x80 PUSH1 0x40 MSTORE CALLVALUE DUP1 ISZERO PUSH1 0xF JUMPI PUSH1 0x0 DUP1 REVERT JUMPDEST POP PUSH1 0x4 CALLDATASIZE LT PUSH1 0x28 JUMPI PUSH1 0x0 CALLDATALOAD PUSH1 0xE0 SHR DUP1 PUSH4 0xDD31794 EQ PUSH1 0x2D JUMPI JUMPDEST PUSH1 0x0 DUP1 REVERT JUMPDEST PUSH1 0x33 PUSH1 0x35 JUMP JUMPDEST STOP JUMPDEST PUSH1 0x0 JUMPDEST PUSH1 0x5 DUP2 LT ISZERO PUSH1 0x5B JUMPI DUP1 PUSH1 0x3 EQ ISZERO PUSH1 0x4C JUMPI PUSH1 0x5B JUMP JUMPDEST DUP1 PUSH1 0x54 DUP2 PUSH1 0x79 JUMP JUMPDEST SWAP2 POP POP PUSH1 0x38 JUMP JUMPDEST POP PUSH1 0x0 JUMPDEST PUSH1 0xA DUP2 LT ISZERO PUSH1 0x76 JUMPI DUP1 PUSH1 0x6F DUP2 PUSH1 0x79 JUMP JUMPDEST SWAP2 POP POP PUSH1 0x5F JUMP JUMPDEST POP JUMP JUMPDEST PUSH1 0x0 PUSH1 0x0 NOT DUP3 EQ ISZERO PUSH1 0x9A JUMPI PUSH4 0x4E487B71 PUSH1 0xE0 SHL PUSH1 0x0 MSTORE PUSH1 0x11 PUSH1 0x4 MSTORE PUSH1 0x24 PUSH1 0x0 REVERT JUMPDEST POP PUSH1 0x1 ADD SWAP1 JUMP INVALID LOG2 PUSH5 0x6970667358 0x22 SLT KECCAK256 PUSH16 0x5CF58F8F2E1CFA095D3C45E696122EF8 ISZERO SWAP4 DUP2 0x21 0x5E EXTCODECOPY DELEGATECALL SWAP11 DUP2 STOP DUP1 0x1F 0xA5 0xC3 MSIZE PUSH5 0x736F6C6343 STOP ADDMOD SIGNEXTEND STOP CALLER "
		},
		"gasEstimates": {
			"creation": {
				"codeDepositCost": "43000",
				"executionCost": "93",
				"totalCost": "43093"
			},
			"external": {
				"myLoop()": "infinite"
			}
		},
		"methodIdentifiers": {
			"myLoop()": "0dd31794"
		}
	},
	"abi": [
		{
			"inputs": [],
			"name": "myLoop",
			"outputs": [],
			"stateMutability": "pure",
			"type": "function"
		}
	]
}