{
	"data": {
		"bytecode": {
			"linkReferences": {},
			"object": "6080604052600080556001805460ff1916905534801561001e57600080fd5b5060018054610100600160a81b03191633610100021790556102f5806100456000396000f3fe608060405234801561001057600080fd5b50600436106100625760003560e01c80631d0697501461006757806337a66d85146100715780635c975abb1461008257806384f60a23146100a45780638da5cb5b146100ac578063d4da005a146100dc575b600080fd5b61006f6100f3565b005b61006f6001805460ff191681179055565b60015461008f9060ff1681565b60405190151581526020015b60405180910390f35b61006f6101a7565b6001546100c49061010090046001600160a01b031681565b6040516001600160a01b03909116815260200161009b565b6100e560005481565b60405190815260200161009b565b60015460ff161561011f5760405162461bcd60e51b81526004016101169061024b565b60405180910390fd5b60015461010090046001600160a01b0316331461016e5760405162461bcd60e51b815260206004820152600d60248201526c2737ba103a34329027bbb732b960991b6044820152606401610116565b60015460ff16156101915760405162461bcd60e51b81526004016101169061024b565b6000805490806101a08361028d565b9190505550565b60015460ff16156101ca5760405162461bcd60e51b81526004016101169061024b565b60015461010090046001600160a01b031633146102195760405162461bcd60e51b815260206004820152600d60248201526c2737ba103a34329027bbb732b960991b6044820152606401610116565b60015460ff161561023c5760405162461bcd60e51b81526004016101169061024b565b6000805490806101a0836102a4565b60208082526012908201527110dbdb9d1c9858dd081a5cc81c185d5cd95960721b604082015260600190565b634e487b7160e01b600052601160045260246000fd5b60008161029c5761029c610277565b506000190190565b60006000198214156102b8576102b8610277565b506001019056fea26469706673582212204a63dc8a8b612f2af542295674217b781ddf829867d4a48cc7763582995a1bb864736f6c634300080b0033",
			"opcodes": "PUSH1 0x80 PUSH1 0x40 MSTORE PUSH1 0x0 DUP1 SSTORE PUSH1 0x1 DUP1 SLOAD PUSH1 0xFF NOT AND SWAP1 SSTORE CALLVALUE DUP1 ISZERO PUSH2 0x1E JUMPI PUSH1 0x0 DUP1 REVERT JUMPDEST POP PUSH1 0x1 DUP1 SLOAD PUSH2 0x100 PUSH1 0x1 PUSH1 0xA8 SHL SUB NOT AND CALLER PUSH2 0x100 MUL OR SWAP1 SSTORE PUSH2 0x2F5 DUP1 PUSH2 0x45 PUSH1 0x0 CODECOPY PUSH1 0x0 RETURN INVALID PUSH1 0x80 PUSH1 0x40 MSTORE CALLVALUE DUP1 ISZERO PUSH2 0x10 JUMPI PUSH1 0x0 DUP1 REVERT JUMPDEST POP PUSH1 0x4 CALLDATASIZE LT PUSH2 0x62 JUMPI PUSH1 0x0 CALLDATALOAD PUSH1 0xE0 SHR DUP1 PUSH4 0x1D069750 EQ PUSH2 0x67 JUMPI DUP1 PUSH4 0x37A66D85 EQ PUSH2 0x71 JUMPI DUP1 PUSH4 0x5C975ABB EQ PUSH2 0x82 JUMPI DUP1 PUSH4 0x84F60A23 EQ PUSH2 0xA4 JUMPI DUP1 PUSH4 0x8DA5CB5B EQ PUSH2 0xAC JUMPI DUP1 PUSH4 0xD4DA005A EQ PUSH2 0xDC JUMPI JUMPDEST PUSH1 0x0 DUP1 REVERT JUMPDEST PUSH2 0x6F PUSH2 0xF3 JUMP JUMPDEST STOP JUMPDEST PUSH2 0x6F PUSH1 0x1 DUP1 SLOAD PUSH1 0xFF NOT AND DUP2 OR SWAP1 SSTORE JUMP JUMPDEST PUSH1 0x1 SLOAD PUSH2 0x8F SWAP1 PUSH1 0xFF AND DUP2 JUMP JUMPDEST PUSH1 0x40 MLOAD SWAP1 ISZERO ISZERO DUP2 MSTORE PUSH1 0x20 ADD JUMPDEST PUSH1 0x40 MLOAD DUP1 SWAP2 SUB SWAP1 RETURN JUMPDEST PUSH2 0x6F PUSH2 0x1A7 JUMP JUMPDEST PUSH1 0x1 SLOAD PUSH2 0xC4 SWAP1 PUSH2 0x100 SWAP1 DIV PUSH1 0x1 PUSH1 0x1 PUSH1 0xA0 SHL SUB AND DUP2 JUMP JUMPDEST PUSH1 0x40 MLOAD PUSH1 0x1 PUSH1 0x1 PUSH1 0xA0 SHL SUB SWAP1 SWAP2 AND DUP2 MSTORE PUSH1 0x20 ADD PUSH2 0x9B JUMP JUMPDEST PUSH2 0xE5 PUSH1 0x0 SLOAD DUP2 JUMP JUMPDEST PUSH1 0x40 MLOAD SWAP1 DUP2 MSTORE PUSH1 0x20 ADD PUSH2 0x9B JUMP JUMPDEST PUSH1 0x1 SLOAD PUSH1 0xFF AND ISZERO PUSH2 0x11F JUMPI PUSH1 0x40 MLOAD PUSH3 0x461BCD PUSH1 0xE5 SHL DUP2 MSTORE PUSH1 0x4 ADD PUSH2 0x116 SWAP1 PUSH2 0x24B JUMP JUMPDEST PUSH1 0x40 MLOAD DUP1 SWAP2 SUB SWAP1 REVERT JUMPDEST PUSH1 0x1 SLOAD PUSH2 0x100 SWAP1 DIV PUSH1 0x1 PUSH1 0x1 PUSH1 0xA0 SHL SUB AND CALLER EQ PUSH2 0x16E JUMPI PUSH1 0x40 MLOAD PUSH3 0x461BCD PUSH1 0xE5 SHL DUP2 MSTORE PUSH1 0x20 PUSH1 0x4 DUP3 ADD MSTORE PUSH1 0xD PUSH1 0x24 DUP3 ADD MSTORE PUSH13 0x2737BA103A34329027BBB732B9 PUSH1 0x99 SHL PUSH1 0x44 DUP3 ADD MSTORE PUSH1 0x64 ADD PUSH2 0x116 JUMP JUMPDEST PUSH1 0x1 SLOAD PUSH1 0xFF AND ISZERO PUSH2 0x191 JUMPI PUSH1 0x40 MLOAD PUSH3 0x461BCD PUSH1 0xE5 SHL DUP2 MSTORE PUSH1 0x4 ADD PUSH2 0x116 SWAP1 PUSH2 0x24B JUMP JUMPDEST PUSH1 0x0 DUP1 SLOAD SWAP1 DUP1 PUSH2 0x1A0 DUP4 PUSH2 0x28D JUMP JUMPDEST SWAP2 SWAP1 POP SSTORE POP JUMP JUMPDEST PUSH1 0x1 SLOAD PUSH1 0xFF AND ISZERO PUSH2 0x1CA JUMPI PUSH1 0x40 MLOAD PUSH3 0x461BCD PUSH1 0xE5 SHL DUP2 MSTORE PUSH1 0x4 ADD PUSH2 0x116 SWAP1 PUSH2 0x24B JUMP JUMPDEST PUSH1 0x1 SLOAD PUSH2 0x100 SWAP1 DIV PUSH1 0x1 PUSH1 0x1 PUSH1 0xA0 SHL SUB AND CALLER EQ PUSH2 0x219 JUMPI PUSH1 0x40 MLOAD PUSH3 0x461BCD PUSH1 0xE5 SHL DUP2 MSTORE PUSH1 0x20 PUSH1 0x4 DUP3 ADD MSTORE PUSH1 0xD PUSH1 0x24 DUP3 ADD MSTORE PUSH13 0x2737BA103A34329027BBB732B9 PUSH1 0x99 SHL PUSH1 0x44 DUP3 ADD MSTORE PUSH1 0x64 ADD PUSH2 0x116 JUMP JUMPDEST PUSH1 0x1 SLOAD PUSH1 0xFF AND ISZERO PUSH2 0x23C JUMPI PUSH1 0x40 MLOAD PUSH3 0x461BCD PUSH1 0xE5 SHL DUP2 MSTORE PUSH1 0x4 ADD PUSH2 0x116 SWAP1 PUSH2 0x24B JUMP JUMPDEST PUSH1 0x0 DUP1 SLOAD SWAP1 DUP1 PUSH2 0x1A0 DUP4 PUSH2 0x2A4 JUMP JUMPDEST PUSH1 0x20 DUP1 DUP3 MSTORE PUSH1 0x12 SWAP1 DUP3 ADD MSTORE PUSH18 0x10DBDB9D1C9858DD081A5CC81C185D5CD959 PUSH1 0x72 SHL PUSH1 0x40 DUP3 ADD MSTORE PUSH1 0x60 ADD SWAP1 JUMP JUMPDEST PUSH4 0x4E487B71 PUSH1 0xE0 SHL PUSH1 0x0 MSTORE PUSH1 0x11 PUSH1 0x4 MSTORE PUSH1 0x24 PUSH1 0x0 REVERT JUMPDEST PUSH1 0x0 DUP2 PUSH2 0x29C JUMPI PUSH2 0x29C PUSH2 0x277 JUMP JUMPDEST POP PUSH1 0x0 NOT ADD SWAP1 JUMP JUMPDEST PUSH1 0x0 PUSH1 0x0 NOT DUP3 EQ ISZERO PUSH2 0x2B8 JUMPI PUSH2 0x2B8 PUSH2 0x277 JUMP JUMPDEST POP PUSH1 0x1 ADD SWAP1 JUMP INVALID LOG2 PUSH5 0x6970667358 0x22 SLT KECCAK256 0x4A PUSH4 0xDC8A8B61 0x2F 0x2A CREATE2 TIMESTAMP 0x29 JUMP PUSH21 0x217B781DDF829867D4A48CC7763582995A1BB86473 PUSH16 0x6C634300080B00330000000000000000 "
		},
		"gasEstimates": {
			"creation": {
				"codeDepositCost": "151400",
				"executionCost": "53663",
				"totalCost": "205063"
			},
			"external": {
				"addToNum()": "30883",
				"myNum()": "2383",
				"owner()": "2414",
				"paused()": "2321",
				"setPaused()": "24356",
				"subToNum()": "30808"
			}
		},
		"methodIdentifiers": {
			"addToNum()": "84f60a23",
			"myNum()": "d4da005a",
			"owner()": "8da5cb5b",
			"paused()": "5c975abb",
			"setPaused()": "37a66d85",
			"subToNum()": "1d069750"
		}
	},
	"abi": [
		{
			"inputs": [],
			"stateMutability": "nonpayable",
			"type": "constructor"
		},
		{
			"inputs": [],
			"name": "addToNum",
			"outputs": [],
			"stateMutability": "nonpayable",
			"type": "function"
		},
		{
			"inputs": [],
			"name": "myNum",
			"outputs": [
				{
					"internalType": "uint256",
					"name": "",
					"type": "uint256"
				}
			],
			"stateMutability": "view",
			"type": "function"
		},
		{
			"inputs": [],
			"name": "owner",
			"outputs": [
				{
					"internalType": "address",
					"name": "",
					"type": "address"
				}
			],
			"stateMutability": "view",
			"type": "function"
		},
		{
			"inputs": [],
			"name": "paused",
			"outputs": [
				{
					"internalType": "bool",
					"name": "",
					"type": "bool"
				}
			],
			"stateMutability": "view",
			"type": "function"
		},
		{
			"inputs": [],
			"name": "setPaused",
			"outputs": [],
			"stateMutability": "nonpayable",
			"type": "function"
		},
		{
			"inputs": [],
			"name": "subToNum",
			"outputs": [],
			"stateMutability": "nonpayable",
			"type": "function"
		}
	]
}