{
	"data": {
		"bytecode": {
			"linkReferences": {},
			"object": "60806040526000805462ffffff19166203020117905534801561002157600080fd5b506103c6806100316000396000f3fe608060405234801561001057600080fd5b50600436106100575760003560e01c80632c7ad1611461005c5780634ab3248b14610066578063b4cf99781461006e578063ce40616414610076578063eca2a0271461007e575b600080fd5b610064610086565b005b61006461012f565b61006461019c565b610064610248565b61006461025f565b60005460ff6201000082048116916100a6916101008204811691166102d5565b6100b091906102fe565b506000546100ce9060ff610100820481169162010000900416610323565b506000805460ff1690806100e183610353565b825460ff91821661010093840a908102908302199091161790925560008054919091049091169150600161011483610373565b91906101000a81548160ff021916908360ff16021790555050565b6000805460ff61010082048116911610801561015c575060005460ff620100008204811661010090920416115b15610165575060015b60005460ff6101008204811691161080610190575060005460ff620100008204811661010090920416115b15610199575060015b50565b60005460ff6201000082048116916101bc916101008204811691166102d5565b6101c691906102fe565b6000805463ff0000001916630100000060ff9384160217908190556101f9916201000082048116916101009004166102d5565b6000805461ff00191661010060ff93841681029190911780835562010000810484169360019261022e928692919004166102d5565b92506101000a81548160ff021916908360ff160217905550565b6000805460ff610100820481169116106101995750565b6000805460ff6101008204811691161015610278575060015b60005460ff6101008204811691161161028f575060015b60005460ff8082166101009092041614156102a8575060015b60005460ff80821661010090920416146101995750565b634e487b7160e01b600052601160045260246000fd5b600060ff821660ff84168160ff04811182151516156102f6576102f66102bf565b029392505050565b600060ff821660ff84168060ff0382111561031b5761031b6102bf565b019392505050565b600060ff83168061034457634e487b7160e01b600052601260045260246000fd5b8060ff84160691505092915050565b600060ff821660ff81141561036a5761036a6102bf565b60010192915050565b600060ff821680610386576103866102bf565b600019019291505056fea2646970667358221220835e1f4c508bec45e29581c527a95ed3d7535364a97cf8489b0822c0cf6fd36464736f6c634300080b0033",
			"opcodes": "PUSH1 0x80 PUSH1 0x40 MSTORE PUSH1 0x0 DUP1 SLOAD PUSH3 0xFFFFFF NOT AND PUSH3 0x30201 OR SWAP1 SSTORE CALLVALUE DUP1 ISZERO PUSH2 0x21 JUMPI PUSH1 0x0 DUP1 REVERT JUMPDEST POP PUSH2 0x3C6 DUP1 PUSH2 0x31 PUSH1 0x0 CODECOPY PUSH1 0x0 RETURN INVALID PUSH1 0x80 PUSH1 0x40 MSTORE CALLVALUE DUP1 ISZERO PUSH2 0x10 JUMPI PUSH1 0x0 DUP1 REVERT JUMPDEST POP PUSH1 0x4 CALLDATASIZE LT PUSH2 0x57 JUMPI PUSH1 0x0 CALLDATALOAD PUSH1 0xE0 SHR DUP1 PUSH4 0x2C7AD161 EQ PUSH2 0x5C JUMPI DUP1 PUSH4 0x4AB3248B EQ PUSH2 0x66 JUMPI DUP1 PUSH4 0xB4CF9978 EQ PUSH2 0x6E JUMPI DUP1 PUSH4 0xCE406164 EQ PUSH2 0x76 JUMPI DUP1 PUSH4 0xECA2A027 EQ PUSH2 0x7E JUMPI JUMPDEST PUSH1 0x0 DUP1 REVERT JUMPDEST PUSH2 0x64 PUSH2 0x86 JUMP JUMPDEST STOP JUMPDEST PUSH2 0x64 PUSH2 0x12F JUMP JUMPDEST PUSH2 0x64 PUSH2 0x19C JUMP JUMPDEST PUSH2 0x64 PUSH2 0x248 JUMP JUMPDEST PUSH2 0x64 PUSH2 0x25F JUMP JUMPDEST PUSH1 0x0 SLOAD PUSH1 0xFF PUSH3 0x10000 DUP3 DIV DUP2 AND SWAP2 PUSH2 0xA6 SWAP2 PUSH2 0x100 DUP3 DIV DUP2 AND SWAP2 AND PUSH2 0x2D5 JUMP JUMPDEST PUSH2 0xB0 SWAP2 SWAP1 PUSH2 0x2FE JUMP JUMPDEST POP PUSH1 0x0 SLOAD PUSH2 0xCE SWAP1 PUSH1 0xFF PUSH2 0x100 DUP3 DIV DUP2 AND SWAP2 PUSH3 0x10000 SWAP1 DIV AND PUSH2 0x323 JUMP JUMPDEST POP PUSH1 0x0 DUP1 SLOAD PUSH1 0xFF AND SWAP1 DUP1 PUSH2 0xE1 DUP4 PUSH2 0x353 JUMP JUMPDEST DUP3 SLOAD PUSH1 0xFF SWAP2 DUP3 AND PUSH2 0x100 SWAP4 DUP5 EXP SWAP1 DUP2 MUL SWAP1 DUP4 MUL NOT SWAP1 SWAP2 AND OR SWAP1 SWAP3 SSTORE PUSH1 0x0 DUP1 SLOAD SWAP2 SWAP1 SWAP2 DIV SWAP1 SWAP2 AND SWAP2 POP PUSH1 0x1 PUSH2 0x114 DUP4 PUSH2 0x373 JUMP JUMPDEST SWAP2 SWAP1 PUSH2 0x100 EXP DUP2 SLOAD DUP2 PUSH1 0xFF MUL NOT AND SWAP1 DUP4 PUSH1 0xFF AND MUL OR SWAP1 SSTORE POP POP JUMP JUMPDEST PUSH1 0x0 DUP1 SLOAD PUSH1 0xFF PUSH2 0x100 DUP3 DIV DUP2 AND SWAP2 AND LT DUP1 ISZERO PUSH2 0x15C JUMPI POP PUSH1 0x0 SLOAD PUSH1 0xFF PUSH3 0x10000 DUP3 DIV DUP2 AND PUSH2 0x100 SWAP1 SWAP3 DIV AND GT JUMPDEST ISZERO PUSH2 0x165 JUMPI POP PUSH1 0x1 JUMPDEST PUSH1 0x0 SLOAD PUSH1 0xFF PUSH2 0x100 DUP3 DIV DUP2 AND SWAP2 AND LT DUP1 PUSH2 0x190 JUMPI POP PUSH1 0x0 SLOAD PUSH1 0xFF PUSH3 0x10000 DUP3 DIV DUP2 AND PUSH2 0x100 SWAP1 SWAP3 DIV AND GT JUMPDEST ISZERO PUSH2 0x199 JUMPI POP PUSH1 0x1 JUMPDEST POP JUMP JUMPDEST PUSH1 0x0 SLOAD PUSH1 0xFF PUSH3 0x10000 DUP3 DIV DUP2 AND SWAP2 PUSH2 0x1BC SWAP2 PUSH2 0x100 DUP3 DIV DUP2 AND SWAP2 AND PUSH2 0x2D5 JUMP JUMPDEST PUSH2 0x1C6 SWAP2 SWAP1 PUSH2 0x2FE JUMP JUMPDEST PUSH1 0x0 DUP1 SLOAD PUSH4 0xFF000000 NOT AND PUSH4 0x1000000 PUSH1 0xFF SWAP4 DUP5 AND MUL OR SWAP1 DUP2 SWAP1 SSTORE PUSH2 0x1F9 SWAP2 PUSH3 0x10000 DUP3 DIV DUP2 AND SWAP2 PUSH2 0x100 SWAP1 DIV AND PUSH2 0x2D5 JUMP JUMPDEST PUSH1 0x0 DUP1 SLOAD PUSH2 0xFF00 NOT AND PUSH2 0x100 PUSH1 0xFF SWAP4 DUP5 AND DUP2 MUL SWAP2 SWAP1 SWAP2 OR DUP1 DUP4 SSTORE PUSH3 0x10000 DUP2 DIV DUP5 AND SWAP4 PUSH1 0x1 SWAP3 PUSH2 0x22E SWAP3 DUP7 SWAP3 SWAP2 SWAP1 DIV AND PUSH2 0x2D5 JUMP JUMPDEST SWAP3 POP PUSH2 0x100 EXP DUP2 SLOAD DUP2 PUSH1 0xFF MUL NOT AND SWAP1 DUP4 PUSH1 0xFF AND MUL OR SWAP1 SSTORE POP JUMP JUMPDEST PUSH1 0x0 DUP1 SLOAD PUSH1 0xFF PUSH2 0x100 DUP3 DIV DUP2 AND SWAP2 AND LT PUSH2 0x199 JUMPI POP JUMP JUMPDEST PUSH1 0x0 DUP1 SLOAD PUSH1 0xFF PUSH2 0x100 DUP3 DIV DUP2 AND SWAP2 AND LT ISZERO PUSH2 0x278 JUMPI POP PUSH1 0x1 JUMPDEST PUSH1 0x0 SLOAD PUSH1 0xFF PUSH2 0x100 DUP3 DIV DUP2 AND SWAP2 AND GT PUSH2 0x28F JUMPI POP PUSH1 0x1 JUMPDEST PUSH1 0x0 SLOAD PUSH1 0xFF DUP1 DUP3 AND PUSH2 0x100 SWAP1 SWAP3 DIV AND EQ ISZERO PUSH2 0x2A8 JUMPI POP PUSH1 0x1 JUMPDEST PUSH1 0x0 SLOAD PUSH1 0xFF DUP1 DUP3 AND PUSH2 0x100 SWAP1 SWAP3 DIV AND EQ PUSH2 0x199 JUMPI POP JUMP JUMPDEST PUSH4 0x4E487B71 PUSH1 0xE0 SHL PUSH1 0x0 MSTORE PUSH1 0x11 PUSH1 0x4 MSTORE PUSH1 0x24 PUSH1 0x0 REVERT JUMPDEST PUSH1 0x0 PUSH1 0xFF DUP3 AND PUSH1 0xFF DUP5 AND DUP2 PUSH1 0xFF DIV DUP2 GT DUP3 ISZERO ISZERO AND ISZERO PUSH2 0x2F6 JUMPI PUSH2 0x2F6 PUSH2 0x2BF JUMP JUMPDEST MUL SWAP4 SWAP3 POP POP POP JUMP JUMPDEST PUSH1 0x0 PUSH1 0xFF DUP3 AND PUSH1 0xFF DUP5 AND DUP1 PUSH1 0xFF SUB DUP3 GT ISZERO PUSH2 0x31B JUMPI PUSH2 0x31B PUSH2 0x2BF JUMP JUMPDEST ADD SWAP4 SWAP3 POP POP POP JUMP JUMPDEST PUSH1 0x0 PUSH1 0xFF DUP4 AND DUP1 PUSH2 0x344 JUMPI PUSH4 0x4E487B71 PUSH1 0xE0 SHL PUSH1 0x0 MSTORE PUSH1 0x12 PUSH1 0x4 MSTORE PUSH1 0x24 PUSH1 0x0 REVERT JUMPDEST DUP1 PUSH1 0xFF DUP5 AND MOD SWAP2 POP POP SWAP3 SWAP2 POP POP JUMP JUMPDEST PUSH1 0x0 PUSH1 0xFF DUP3 AND PUSH1 0xFF DUP2 EQ ISZERO PUSH2 0x36A JUMPI PUSH2 0x36A PUSH2 0x2BF JUMP JUMPDEST PUSH1 0x1 ADD SWAP3 SWAP2 POP POP JUMP JUMPDEST PUSH1 0x0 PUSH1 0xFF DUP3 AND DUP1 PUSH2 0x386 JUMPI PUSH2 0x386 PUSH2 0x2BF JUMP JUMPDEST PUSH1 0x0 NOT ADD SWAP3 SWAP2 POP POP JUMP INVALID LOG2 PUSH5 0x6970667358 0x22 SLT KECCAK256 DUP4 0x5E 0x1F 0x4C POP DUP12 0xEC GASLIMIT 0xE2 SWAP6 DUP2 0xC5 0x27 0xA9 0x5E 0xD3 0xD7 MSTORE8 MSTORE8 PUSH5 0xA97CF8489B ADDMOD 0x22 0xC0 0xCF PUSH16 0xD36464736F6C634300080B0033000000 "
		},
		"gasEstimates": {
			"creation": {
				"codeDepositCost": "193200",
				"executionCost": "24462",
				"totalCost": "217662"
			},
			"external": {
				"example_1()": "57718",
				"example_2()": "infinite",
				"example_3()": "8826",
				"example_4()": "8784",
				"example_5()": "2339"
			}
		},
		"methodIdentifiers": {
			"example_1()": "2c7ad161",
			"example_2()": "b4cf9978",
			"example_3()": "eca2a027",
			"example_4()": "4ab3248b",
			"example_5()": "ce406164"
		}
	},
	"abi": [
		{
			"inputs": [],
			"name": "example_1",
			"outputs": [],
			"stateMutability": "nonpayable",
			"type": "function"
		},
		{
			"inputs": [],
			"name": "example_2",
			"outputs": [],
			"stateMutability": "nonpayable",
			"type": "function"
		},
		{
			"inputs": [],
			"name": "example_3",
			"outputs": [],
			"stateMutability": "view",
			"type": "function"
		},
		{
			"inputs": [],
			"name": "example_4",
			"outputs": [],
			"stateMutability": "view",
			"type": "function"
		},
		{
			"inputs": [],
			"name": "example_5",
			"outputs": [],
			"stateMutability": "view",
			"type": "function"
		}
	]
}